{
  "abi": [
    {
      "type": "constructor",
      "inputs": [
        {
          "name": "_asset",
          "type": "address",
          "internalType": "contract IERC20"
        },
        {
          "name": "_basisPoints",
          "type": "uint256",
          "internalType": "uint256"
        },
        {
          "name": "_maxBasisPoints",
          "type": "uint256",
          "internalType": "uint256"
        }
      ],
      "stateMutability": "nonpayable"
    },
    {
      "type": "function",
      "name": "allowance",
      "inputs": [
        {
          "name": "owner",
          "type": "address",
          "internalType": "address"
        },
        {
          "name": "spender",
          "type": "address",
          "internalType": "address"
        }
      ],
      "outputs": [
        {
          "name": "",
          "type": "uint256",
          "internalType": "uint256"
        }
      ],
      "stateMutability": "view"
    },
    {
      "type": "function",
      "name": "approve",
      "inputs": [
        {
          "name": "spender",
          "type": "address",
          "internalType": "address"
        },
        {
          "name": "value",
          "type": "uint256",
          "internalType": "uint256"
        }
      ],
      "outputs": [
        {
          "name": "",
          "type": "bool",
          "internalType": "bool"
        }
      ],
      "stateMutability": "nonpayable"
    },
    {
      "type": "function",
      "name": "asset",
      "inputs": [],
      "outputs": [
        {
          "name": "",
          "type": "address",
          "internalType": "address"
        }
      ],
      "stateMutability": "view"
    },
    {
      "type": "function",
      "name": "balanceOf",
      "inputs": [
        {
          "name": "account",
          "type": "address",
          "internalType": "address"
        }
      ],
      "outputs": [
        {
          "name": "",
          "type": "uint256",
          "internalType": "uint256"
        }
      ],
      "stateMutability": "view"
    },
    {
      "type": "function",
      "name": "claimableDepositRequest",
      "inputs": [
        {
          "name": "",
          "type": "address",
          "internalType": "address"
        }
      ],
      "outputs": [
        {
          "name": "",
          "type": "uint256",
          "internalType": "uint256"
        }
      ],
      "stateMutability": "view"
    },
    {
      "type": "function",
      "name": "convertToAssets",
      "inputs": [
        {
          "name": "shares",
          "type": "uint256",
          "internalType": "uint256"
        }
      ],
      "outputs": [
        {
          "name": "",
          "type": "uint256",
          "internalType": "uint256"
        }
      ],
      "stateMutability": "view"
    },
    {
      "type": "function",
      "name": "convertToShares",
      "inputs": [
        {
          "name": "assets",
          "type": "uint256",
          "internalType": "uint256"
        }
      ],
      "outputs": [
        {
          "name": "",
          "type": "uint256",
          "internalType": "uint256"
        }
      ],
      "stateMutability": "view"
    },
    {
      "type": "function",
      "name": "decimals",
      "inputs": [],
      "outputs": [
        {
          "name": "",
          "type": "uint8",
          "internalType": "uint8"
        }
      ],
      "stateMutability": "view"
    },
    {
      "type": "function",
      "name": "deposit",
      "inputs": [
        {
          "name": "assets",
          "type": "uint256",
          "internalType": "uint256"
        },
        {
          "name": "receiver",
          "type": "address",
          "internalType": "address"
        }
      ],
      "outputs": [
        {
          "name": "",
          "type": "uint256",
          "internalType": "uint256"
        }
      ],
      "stateMutability": "nonpayable"
    },
    {
      "type": "function",
      "name": "entryFeeBasisPoints",
      "inputs": [],
      "outputs": [
        {
          "name": "",
          "type": "uint256",
          "internalType": "uint256"
        }
      ],
      "stateMutability": "view"
    },
    {
      "type": "function",
      "name": "isOperator",
      "inputs": [
        {
          "name": "controller",
          "type": "address",
          "internalType": "address"
        },
        {
          "name": "operator",
          "type": "address",
          "internalType": "address"
        }
      ],
      "outputs": [
        {
          "name": "",
          "type": "bool",
          "internalType": "bool"
        }
      ],
      "stateMutability": "view"
    },
    {
      "type": "function",
      "name": "maxDeposit",
      "inputs": [
        {
          "name": "",
          "type": "address",
          "internalType": "address"
        }
      ],
      "outputs": [
        {
          "name": "",
          "type": "uint256",
          "internalType": "uint256"
        }
      ],
      "stateMutability": "view"
    },
    {
      "type": "function",
      "name": "maxEntryFeeBasisPoints",
      "inputs": [],
      "outputs": [
        {
          "name": "",
          "type": "uint256",
          "internalType": "uint256"
        }
      ],
      "stateMutability": "view"
    },
    {
      "type": "function",
      "name": "maxMint",
      "inputs": [
        {
          "name": "",
          "type": "address",
          "internalType": "address"
        }
      ],
      "outputs": [
        {
          "name": "",
          "type": "uint256",
          "internalType": "uint256"
        }
      ],
      "stateMutability": "view"
    },
    {
      "type": "function",
      "name": "maxRedeem",
      "inputs": [
        {
          "name": "owner",
          "type": "address",
          "internalType": "address"
        }
      ],
      "outputs": [
        {
          "name": "",
          "type": "uint256",
          "internalType": "uint256"
        }
      ],
      "stateMutability": "view"
    },
    {
      "type": "function",
      "name": "maxWithdraw",
      "inputs": [
        {
          "name": "owner",
          "type": "address",
          "internalType": "address"
        }
      ],
      "outputs": [
        {
          "name": "",
          "type": "uint256",
          "internalType": "uint256"
        }
      ],
      "stateMutability": "view"
    },
    {
      "type": "function",
      "name": "mint",
      "inputs": [
        {
          "name": "shares",
          "type": "uint256",
          "internalType": "uint256"
        },
        {
          "name": "receiver",
          "type": "address",
          "internalType": "address"
        }
      ],
      "outputs": [
        {
          "name": "",
          "type": "uint256",
          "internalType": "uint256"
        }
      ],
      "stateMutability": "nonpayable"
    },
    {
      "type": "function",
      "name": "name",
      "inputs": [],
      "outputs": [
        {
          "name": "",
          "type": "string",
          "internalType": "string"
        }
      ],
      "stateMutability": "view"
    },
    {
      "type": "function",
      "name": "owner",
      "inputs": [],
      "outputs": [
        {
          "name": "",
          "type": "address",
          "internalType": "address"
        }
      ],
      "stateMutability": "view"
    },
    {
      "type": "function",
      "name": "pendingDepositRequest",
      "inputs": [
        {
          "name": "",
          "type": "address",
          "internalType": "address"
        }
      ],
      "outputs": [
        {
          "name": "",
          "type": "uint256",
          "internalType": "uint256"
        }
      ],
      "stateMutability": "view"
    },
    {
      "type": "function",
      "name": "previewDeposit",
      "inputs": [
        {
          "name": "assets",
          "type": "uint256",
          "internalType": "uint256"
        }
      ],
      "outputs": [
        {
          "name": "",
          "type": "uint256",
          "internalType": "uint256"
        }
      ],
      "stateMutability": "view"
    },
    {
      "type": "function",
      "name": "previewMint",
      "inputs": [
        {
          "name": "shares",
          "type": "uint256",
          "internalType": "uint256"
        }
      ],
      "outputs": [
        {
          "name": "",
          "type": "uint256",
          "internalType": "uint256"
        }
      ],
      "stateMutability": "view"
    },
    {
      "type": "function",
      "name": "previewRedeem",
      "inputs": [
        {
          "name": "shares",
          "type": "uint256",
          "internalType": "uint256"
        }
      ],
      "outputs": [
        {
          "name": "",
          "type": "uint256",
          "internalType": "uint256"
        }
      ],
      "stateMutability": "view"
    },
    {
      "type": "function",
      "name": "previewWithdraw",
      "inputs": [
        {
          "name": "assets",
          "type": "uint256",
          "internalType": "uint256"
        }
      ],
      "outputs": [
        {
          "name": "",
          "type": "uint256",
          "internalType": "uint256"
        }
      ],
      "stateMutability": "view"
    },
    {
      "type": "function",
      "name": "redeem",
      "inputs": [
        {
          "name": "shares",
          "type": "uint256",
          "internalType": "uint256"
        },
        {
          "name": "receiver",
          "type": "address",
          "internalType": "address"
        },
        {
          "name": "owner",
          "type": "address",
          "internalType": "address"
        }
      ],
      "outputs": [
        {
          "name": "",
          "type": "uint256",
          "internalType": "uint256"
        }
      ],
      "stateMutability": "nonpayable"
    },
    {
      "type": "function",
      "name": "renounceOwnership",
      "inputs": [],
      "outputs": [],
      "stateMutability": "nonpayable"
    },
    {
      "type": "function",
      "name": "requestDeposit",
      "inputs": [
        {
          "name": "assets",
          "type": "uint256",
          "internalType": "uint256"
        },
        {
          "name": "controller",
          "type": "address",
          "internalType": "address"
        },
        {
          "name": "owner",
          "type": "address",
          "internalType": "address"
        }
      ],
      "outputs": [
        {
          "name": "requestId",
          "type": "uint256",
          "internalType": "uint256"
        }
      ],
      "stateMutability": "nonpayable"
    },
    {
      "type": "function",
      "name": "requestRedeem",
      "inputs": [
        {
          "name": "shares",
          "type": "uint256",
          "internalType": "uint256"
        },
        {
          "name": "owner",
          "type": "address",
          "internalType": "address"
        }
      ],
      "outputs": [
        {
          "name": "requestId",
          "type": "uint256",
          "internalType": "uint256"
        }
      ],
      "stateMutability": "nonpayable"
    },
    {
      "type": "function",
      "name": "setOperator",
      "inputs": [
        {
          "name": "operator",
          "type": "address",
          "internalType": "address"
        },
        {
          "name": "approved",
          "type": "bool",
          "internalType": "bool"
        }
      ],
      "outputs": [
        {
          "name": "",
          "type": "bool",
          "internalType": "bool"
        }
      ],
      "stateMutability": "nonpayable"
    },
    {
      "type": "function",
      "name": "symbol",
      "inputs": [],
      "outputs": [
        {
          "name": "",
          "type": "string",
          "internalType": "string"
        }
      ],
      "stateMutability": "view"
    },
    {
      "type": "function",
      "name": "totalAssets",
      "inputs": [],
      "outputs": [
        {
          "name": "",
          "type": "uint256",
          "internalType": "uint256"
        }
      ],
      "stateMutability": "view"
    },
    {
      "type": "function",
      "name": "totalSupply",
      "inputs": [],
      "outputs": [
        {
          "name": "",
          "type": "uint256",
          "internalType": "uint256"
        }
      ],
      "stateMutability": "view"
    },
    {
      "type": "function",
      "name": "transfer",
      "inputs": [
        {
          "name": "to",
          "type": "address",
          "internalType": "address"
        },
        {
          "name": "value",
          "type": "uint256",
          "internalType": "uint256"
        }
      ],
      "outputs": [
        {
          "name": "",
          "type": "bool",
          "internalType": "bool"
        }
      ],
      "stateMutability": "nonpayable"
    },
    {
      "type": "function",
      "name": "transferFrom",
      "inputs": [
        {
          "name": "from",
          "type": "address",
          "internalType": "address"
        },
        {
          "name": "to",
          "type": "address",
          "internalType": "address"
        },
        {
          "name": "value",
          "type": "uint256",
          "internalType": "uint256"
        }
      ],
      "outputs": [
        {
          "name": "",
          "type": "bool",
          "internalType": "bool"
        }
      ],
      "stateMutability": "nonpayable"
    },
    {
      "type": "function",
      "name": "transferOwnership",
      "inputs": [
        {
          "name": "newOwner",
          "type": "address",
          "internalType": "address"
        }
      ],
      "outputs": [],
      "stateMutability": "nonpayable"
    },
    {
      "type": "function",
      "name": "updateEntryFeeBasisPoints",
      "inputs": [
        {
          "name": "newBasisPoints",
          "type": "uint256",
          "internalType": "uint256"
        }
      ],
      "outputs": [],
      "stateMutability": "nonpayable"
    },
    {
      "type": "function",
      "name": "withdraw",
      "inputs": [
        {
          "name": "assets",
          "type": "uint256",
          "internalType": "uint256"
        },
        {
          "name": "receiver",
          "type": "address",
          "internalType": "address"
        },
        {
          "name": "owner",
          "type": "address",
          "internalType": "address"
        }
      ],
      "outputs": [
        {
          "name": "",
          "type": "uint256",
          "internalType": "uint256"
        }
      ],
      "stateMutability": "nonpayable"
    },
    {
      "type": "event",
      "name": "Approval",
      "inputs": [
        {
          "name": "owner",
          "type": "address",
          "indexed": true,
          "internalType": "address"
        },
        {
          "name": "spender",
          "type": "address",
          "indexed": true,
          "internalType": "address"
        },
        {
          "name": "value",
          "type": "uint256",
          "indexed": false,
          "internalType": "uint256"
        }
      ],
      "anonymous": false
    },
    {
      "type": "event",
      "name": "Deposit",
      "inputs": [
        {
          "name": "sender",
          "type": "address",
          "indexed": true,
          "internalType": "address"
        },
        {
          "name": "owner",
          "type": "address",
          "indexed": true,
          "internalType": "address"
        },
        {
          "name": "assets",
          "type": "uint256",
          "indexed": false,
          "internalType": "uint256"
        },
        {
          "name": "shares",
          "type": "uint256",
          "indexed": false,
          "internalType": "uint256"
        }
      ],
      "anonymous": false
    },
    {
      "type": "event",
      "name": "DepositRequest",
      "inputs": [
        {
          "name": "controller",
          "type": "address",
          "indexed": false,
          "internalType": "address"
        },
        {
          "name": "owner",
          "type": "address",
          "indexed": false,
          "internalType": "address"
        },
        {
          "name": "requestId",
          "type": "uint256",
          "indexed": false,
          "internalType": "uint256"
        },
        {
          "name": "requester",
          "type": "address",
          "indexed": false,
          "internalType": "address"
        },
        {
          "name": "assets",
          "type": "uint256",
          "indexed": false,
          "internalType": "uint256"
        }
      ],
      "anonymous": false
    },
    {
      "type": "event",
      "name": "EntryFeeUpdated",
      "inputs": [
        {
          "name": "oldFee",
          "type": "uint256",
          "indexed": false,
          "internalType": "uint256"
        },
        {
          "name": "newFee",
          "type": "uint256",
          "indexed": false,
          "internalType": "uint256"
        }
      ],
      "anonymous": false
    },
    {
      "type": "event",
      "name": "OperatorSet",
      "inputs": [
        {
          "name": "owner",
          "type": "address",
          "indexed": false,
          "internalType": "address"
        },
        {
          "name": "operator",
          "type": "address",
          "indexed": false,
          "internalType": "address"
        },
        {
          "name": "approved",
          "type": "bool",
          "indexed": false,
          "internalType": "bool"
        }
      ],
      "anonymous": false
    },
    {
      "type": "event",
      "name": "OwnershipTransferred",
      "inputs": [
        {
          "name": "previousOwner",
          "type": "address",
          "indexed": true,
          "internalType": "address"
        },
        {
          "name": "newOwner",
          "type": "address",
          "indexed": true,
          "internalType": "address"
        }
      ],
      "anonymous": false
    },
    {
      "type": "event",
      "name": "RedeemRequest",
      "inputs": [
        {
          "name": "owner",
          "type": "address",
          "indexed": true,
          "internalType": "address"
        },
        {
          "name": "requester",
          "type": "address",
          "indexed": true,
          "internalType": "address"
        },
        {
          "name": "requestId",
          "type": "uint256",
          "indexed": false,
          "internalType": "uint256"
        },
        {
          "name": "shares",
          "type": "uint256",
          "indexed": false,
          "internalType": "uint256"
        },
        {
          "name": "assets",
          "type": "uint256",
          "indexed": false,
          "internalType": "uint256"
        }
      ],
      "anonymous": false
    },
    {
      "type": "event",
      "name": "Transfer",
      "inputs": [
        {
          "name": "from",
          "type": "address",
          "indexed": true,
          "internalType": "address"
        },
        {
          "name": "to",
          "type": "address",
          "indexed": true,
          "internalType": "address"
        },
        {
          "name": "value",
          "type": "uint256",
          "indexed": false,
          "internalType": "uint256"
        }
      ],
      "anonymous": false
    },
    {
      "type": "event",
      "name": "Withdraw",
      "inputs": [
        {
          "name": "sender",
          "type": "address",
          "indexed": true,
          "internalType": "address"
        },
        {
          "name": "receiver",
          "type": "address",
          "indexed": true,
          "internalType": "address"
        },
        {
          "name": "owner",
          "type": "address",
          "indexed": true,
          "internalType": "address"
        },
        {
          "name": "assets",
          "type": "uint256",
          "indexed": false,
          "internalType": "uint256"
        },
        {
          "name": "shares",
          "type": "uint256",
          "indexed": false,
          "internalType": "uint256"
        }
      ],
      "anonymous": false
    },
    {
      "type": "error",
      "name": "ERC20InsufficientAllowance",
      "inputs": [
        {
          "name": "spender",
          "type": "address",
          "internalType": "address"
        },
        {
          "name": "allowance",
          "type": "uint256",
          "internalType": "uint256"
        },
        {
          "name": "needed",
          "type": "uint256",
          "internalType": "uint256"
        }
      ]
    },
    {
      "type": "error",
      "name": "ERC20InsufficientBalance",
      "inputs": [
        {
          "name": "sender",
          "type": "address",
          "internalType": "address"
        },
        {
          "name": "balance",
          "type": "uint256",
          "internalType": "uint256"
        },
        {
          "name": "needed",
          "type": "uint256",
          "internalType": "uint256"
        }
      ]
    },
    {
      "type": "error",
      "name": "ERC20InvalidApprover",
      "inputs": [
        {
          "name": "approver",
          "type": "address",
          "internalType": "address"
        }
      ]
    },
    {
      "type": "error",
      "name": "ERC20InvalidReceiver",
      "inputs": [
        {
          "name": "receiver",
          "type": "address",
          "internalType": "address"
        }
      ]
    },
    {
      "type": "error",
      "name": "ERC20InvalidSender",
      "inputs": [
        {
          "name": "sender",
          "type": "address",
          "internalType": "address"
        }
      ]
    },
    {
      "type": "error",
      "name": "ERC20InvalidSpender",
      "inputs": [
        {
          "name": "spender",
          "type": "address",
          "internalType": "address"
        }
      ]
    },
    {
      "type": "error",
      "name": "ERC4626ExceededMaxDeposit",
      "inputs": [
        {
          "name": "receiver",
          "type": "address",
          "internalType": "address"
        },
        {
          "name": "assets",
          "type": "uint256",
          "internalType": "uint256"
        },
        {
          "name": "max",
          "type": "uint256",
          "internalType": "uint256"
        }
      ]
    },
    {
      "type": "error",
      "name": "ERC4626ExceededMaxMint",
      "inputs": [
        {
          "name": "receiver",
          "type": "address",
          "internalType": "address"
        },
        {
          "name": "shares",
          "type": "uint256",
          "internalType": "uint256"
        },
        {
          "name": "max",
          "type": "uint256",
          "internalType": "uint256"
        }
      ]
    },
    {
      "type": "error",
      "name": "ERC4626ExceededMaxRedeem",
      "inputs": [
        {
          "name": "owner",
          "type": "address",
          "internalType": "address"
        },
        {
          "name": "shares",
          "type": "uint256",
          "internalType": "uint256"
        },
        {
          "name": "max",
          "type": "uint256",
          "internalType": "uint256"
        }
      ]
    },
    {
      "type": "error",
      "name": "ERC4626ExceededMaxWithdraw",
      "inputs": [
        {
          "name": "owner",
          "type": "address",
          "internalType": "address"
        },
        {
          "name": "assets",
          "type": "uint256",
          "internalType": "uint256"
        },
        {
          "name": "max",
          "type": "uint256",
          "internalType": "uint256"
        }
      ]
    },
    {
      "type": "error",
      "name": "OwnableInvalidOwner",
      "inputs": [
        {
          "name": "owner",
          "type": "address",
          "internalType": "address"
        }
      ]
    },
    {
      "type": "error",
      "name": "OwnableUnauthorizedAccount",
      "inputs": [
        {
          "name": "account",
          "type": "address",
          "internalType": "address"
        }
      ]
    },
    {
      "type": "error",
      "name": "SafeERC20FailedOperation",
      "inputs": [
        {
          "name": "token",
          "type": "address",
          "internalType": "address"
        }
      ]
    }
  ],
  "bytecode": {
    "object": "0x60e060405234801561000f575f80fd5b50604051611f10380380611f1083398101604081905261002e91610241565b33836040518060400160405280601981526020017f476f72696c6c696f6e61697265205661756c7420546f6b656e000000000000008152506040518060400160405280600581526020016406744524f560dc1b81525081600390816100939190610318565b5060046100a08282610318565b5050505f806100b48361011a60201b60201c565b91509150816100c45760126100c6565b805b60ff1660a05250506001600160a01b03908116608052811661010157604051631e4fbdf760e01b81525f600482015260240160405180910390fd5b61010a816101f0565b5060099190915560c052506103ff565b60408051600481526024810182526020810180516001600160e01b031663313ce56760e01b17905290515f918291829182916001600160a01b03871691610160916103d2565b5f60405180830381855afa9150503d805f8114610198576040519150601f19603f3d011682016040523d82523d5f602084013e61019d565b606091505b50915091508180156101b157506020815110155b156101e4575f818060200190518101906101cb91906103e8565b905060ff81116101e2576001969095509350505050565b505b505f9485945092505050565b600580546001600160a01b038381166001600160a01b0319831681179093556040519116919082907f8be0079c531659141344cd1fd0a4f28419497f9722a3daafe3b4186f6b6457e0905f90a35050565b5f805f60608486031215610253575f80fd5b83516001600160a01b0381168114610269575f80fd5b602085015160409095015190969495509392505050565b634e487b7160e01b5f52604160045260245ffd5b600181811c908216806102a857607f821691505b6020821081036102c657634e487b7160e01b5f52602260045260245ffd5b50919050565b601f82111561031357805f5260205f20601f840160051c810160208510156102f15750805b601f840160051c820191505b81811015610310575f81556001016102fd565b50505b505050565b81516001600160401b0381111561033157610331610280565b6103458161033f8454610294565b846102cc565b6020601f821160018114610377575f83156103605750848201515b5f19600385901b1c1916600184901b178455610310565b5f84815260208120601f198516915b828110156103a65787850151825560209485019460019092019101610386565b50848210156103c357868401515f19600387901b60f8161c191681555b50505050600190811b01905550565b5f82518060208501845e5f920191825250919050565b5f602082840312156103f8575f80fd5b5051919050565b60805160a05160c051611ab661045a5f395f81816103a10152610c5101525f61083d01525f81816102e501528181610583015281816109f801528181610f480152818161103f015281816112da01526113eb0152611ab65ff3fe608060405234801561000f575f80fd5b506004361061021e575f3560e01c80638da5cb5b1161012a578063ba0af7a9116100b4578063d57636c911610079578063d57636c9146104e8578063d905777e146104fb578063dd62ed3e1461050e578063ef8b30f714610546578063f2fde38b14610559575f80fd5b8063ba0af7a91461049a578063c3702989146104a3578063c63d75b61461031d578063c6e6f592146104c2578063ce96cb77146104d5575f80fd5b8063aff947c4116100fa578063aff947c414610415578063b3d7f6b914610434578063b460af9414610447578063b6363cf21461045a578063ba08765214610487575f80fd5b80638da5cb5b146103d657806394bf804d146103e757806395d89b41146103fa578063a9059cbb14610402575f80fd5b806338d52e0f116101ab5780636e553f651161017b5780636e553f651461035757806370a082311461036a578063715018a6146103925780637536018b1461039c57806385b77f45146103c3575f80fd5b806338d52e0f146102e3578063402d267d1461031d5780634cdad50614610331578063558a729714610344575f80fd5b80630a28a477116101f15780630a28a47714610288578063107703ab1461029b57806318160ddd146102ae57806323b872dd146102b6578063313ce567146102c9575f80fd5b806301e1d1141461022257806306fdde031461023d57806307a2d13a14610252578063095ea7b314610265575b5f80fd5b61022a61056c565b6040519081526020015b60405180910390f35b6102456105f9565b604051610234919061167c565b61022a6102603660046116b1565b610689565b6102786102733660046116e3565b61069a565b6040519015158152602001610234565b61022a6102963660046116b1565b6106b1565b61022a6102a936600461170b565b6106de565b60025461022a565b6102786102c4366004611735565b610813565b6102d1610836565b60405160ff9091168152602001610234565b7f00000000000000000000000000000000000000000000000000000000000000005b6040516001600160a01b039091168152602001610234565b61022a61032b36600461176f565b505f1990565b61022a61033f3660046116b1565b610861565b610278610352366004611795565b610888565b61022a61036536600461170b565b6108fe565b61022a61037836600461176f565b6001600160a01b03165f9081526020819052604090205490565b61039a610921565b005b61022a7f000000000000000000000000000000000000000000000000000000000000000081565b61022a6103d13660046117ca565b610934565b6005546001600160a01b0316610305565b61022a6103f536600461170b565b610b1c565b610245610b37565b6102786104103660046116e3565b610b46565b61022a61042336600461176f565b60076020525f908152604090205481565b61022a6104423660046116b1565b610b53565b61022a6104553660046117ca565b610b77565b610278610468366004611803565b600860209081525f928352604080842090915290825290205460ff1681565b61022a6104953660046117ca565b610bcd565b61022a60095481565b61022a6104b136600461176f565b60066020525f908152604090205481565b61022a6104d03660046116b1565b610c1a565b61022a6104e336600461176f565b610c25565b61039a6104f63660046116b1565b610c47565b61022a61050936600461176f565b610cf5565b61022a61051c366004611803565b6001600160a01b039182165f90815260016020908152604080832093909416825291909152205490565b61022a6105543660046116b1565b610d12565b61039a61056736600461176f565b610d30565b6040516370a0823160e01b81523060048201525f907f00000000000000000000000000000000000000000000000000000000000000006001600160a01b0316906370a0823190602401602060405180830381865afa1580156105d0573d5f803e3d5ffd5b505050506040513d601f19601f820116820180604052508101906105f4919061182b565b905090565b60606003805461060890611842565b80601f016020809104026020016040519081016040528092919081815260200182805461063490611842565b801561067f5780601f106106565761010080835404028352916020019161067f565b820191905f5260205f20905b81548152906001019060200180831161066257829003601f168201915b5050505050905090565b5f610694825f610d6d565b92915050565b5f336106a7818585610da5565b5060019392505050565b5f806106c3836064610db7565b610db7565b90506106d76106d2828561188e565b610e05565b9392505050565b5f816001600160a01b03811633148061071957506001600160a01b0381165f90815260086020908152604080832033845290915290205460ff165b61075b5760405162461bcd60e51b815260206004820152600e60248201526d139bdd08185d5d1a1bdc9a5e995960921b60448201526064015b60405180910390fd5b835f036107a25760405162461bcd60e51b81526020600482015260156024820152745368617265732063616e6e6f74206265207a65726f60581b6044820152606401610752565b5f6107ac85610861565b90506107b9843087610e11565b604080515f8082526020820188905291810183905290935033906001600160a01b038616907f5c6e3bc30bb31925b38a120441ffc021f055c765ef46d1109e3bf213e8b836539060600160405180910390a3505092915050565b5f33610820858285610e6e565b61082b858585610e11565b506001949350505050565b5f6105f4817f00000000000000000000000000000000000000000000000000000000000000006118a1565b5f8061086c83610689565b905061087e816064610ed7565b610ed7565b6106d790826118ba565b335f8181526008602090815260408083206001600160a01b038716808552908352818420805460ff1916871515908117909155825195865292850152830152907fceb576d9f15e4e200fdb5096d64d5dfd667e16def20c1eefd14256d8e3faa2679060600160405180910390a150600192915050565b5f5f195f61090b85610d12565b905061091933858784610eff565b949350505050565b610929610f77565b6109325f610fa4565b565b5f816001600160a01b03811633148061096f57506001600160a01b0381165f90815260086020908152604080832033845290915290205460ff165b6109ac5760405162461bcd60e51b815260206004820152600e60248201526d139bdd08185d5d1a1bdc9a5e995960921b6044820152606401610752565b845f036109f35760405162461bcd60e51b81526020600482015260156024820152744173736574732063616e6e6f74206265207a65726f60581b6044820152606401610752565b5f91507f00000000000000000000000000000000000000000000000000000000000000006040516323b872dd60e01b81526001600160a01b0385811660048301523060248301526044820188905291909116906323b872dd906064016020604051808303815f875af1158015610a6b573d5f803e3d5ffd5b505050506040513d601f19601f82011682018060405250810190610a8f91906118ee565b506001600160a01b0384165f9081526006602052604081208054879290610ab790849061188e565b9091555050604080516001600160a01b03808716825285166020820152908101839052336060820152608081018690527fbb58420bb8ce44e11b84e214cc0de10ce5e7c24d0355b2815c3d758b514cae729060a00160405180910390a1509392505050565b5f5f195f610b2985610b53565b905061091933858388610eff565b60606004805461060890611842565b5f336106a7818585610e11565b5f80610b5e83610ff5565b9050610b6d816106be60095490565b6106d7908261188e565b5f80610b8283610c25565b905080851115610bab57828582604051633fa733bb60e21b8152600401610752939291906118cd565b5f610bb5866106b1565b9050610bc43386868985611001565b95945050505050565b5f80610bd883610cf5565b905080851115610c0157828582604051632e52afbb60e21b8152600401610752939291906118cd565b5f610c0b86610861565b9050610bc4338686848a611001565b5f610694825f61106c565b6001600160a01b0381165f90815260208190526040812054610694905f610d6d565b610c4f610f77565b7f0000000000000000000000000000000000000000000000000000000000000000811115610cb45760405162461bcd60e51b815260206004820152601260248201527108adce8e4f240cccaca40e8dede40d0d2ced60731b6044820152606401610752565b60095460408051918252602082018390527f6a75d918a59da9597a749b7c707f23cfa76552074b43c68a24a21db1c45841f1910160405180910390a1600955565b6001600160a01b0381165f90815260208190526040812054610694565b5f80610d218361087960095490565b90506106d76104d082856118ba565b610d38610f77565b6001600160a01b038116610d6157604051631e4fbdf760e01b81525f6004820152602401610752565b610d6a81610fa4565b50565b5f6106d7610d7961056c565b610d8490600161188e565b610d8f5f600a6119ec565b600254610d9c919061188e565b8591908561109b565b610db283838360016110dd565b505050565b5f80610dc383856119fa565b90506127105f610dd38284611a25565b9050610ddf8284611a38565b5f03610deb575f610dee565b60015b610dfb9060ff168261188e565b9695505050505050565b5f61069482600161106c565b6001600160a01b038316610e3a57604051634b637e8f60e11b81525f6004820152602401610752565b6001600160a01b038216610e635760405163ec442f0560e01b81525f6004820152602401610752565b610db28383836111af565b6001600160a01b038381165f908152600160209081526040808320938616835292905220545f19811015610ed15781811015610ec357828183604051637dc7a0d960e11b8152600401610752939291906118cd565b610ed184848484035f6110dd565b50505050565b5f80610ee383856119fa565b90505f610ef26127108561188e565b90505f610dd38284611a25565b5f610f0d8361087960095490565b90505f610f186112c2565b9050610f26868686866112d5565b5f82118015610f3e57506001600160a01b0381163014155b15610f6f57610f6f7f00000000000000000000000000000000000000000000000000000000000000005b8284611359565b505050505050565b6005546001600160a01b031633146109325760405163118cdaa760e01b8152336004820152602401610752565b600580546001600160a01b038381166001600160a01b0319831681179093556040519116919082907f8be0079c531659141344cd1fd0a4f28419497f9722a3daafe3b4186f6b6457e0905f90a35050565b5f610694826001610d6d565b5f61100d836064610db7565b90505f61101d87878787876113b8565b5f8211801561103557506001600160a01b0381163014155b15611063576110637f0000000000000000000000000000000000000000000000000000000000000000610f68565b50505050505050565b5f6106d761107b82600a6119ec565b600254611088919061188e565b61109061056c565b610d9c90600161188e565b5f6110c86110a883611478565b80156110c357505f84806110be576110be611a11565b868809115b151590565b6110d38686866114a4565b610bc4919061188e565b6001600160a01b0384166111065760405163e602df0560e01b81525f6004820152602401610752565b6001600160a01b03831661112f57604051634a1406b160e11b81525f6004820152602401610752565b6001600160a01b038085165f9081526001602090815260408083209387168352929052208290558015610ed157826001600160a01b0316846001600160a01b03167f8c5be1e5ebec7d5bd14f71427d1e84f3dd0314c0f7b2291e5b200ac8c7c3b925846040516111a191815260200190565b60405180910390a350505050565b6001600160a01b0383166111d9578060025f8282546111ce919061188e565b909155506112369050565b6001600160a01b0383165f90815260208190526040902054818110156112185783818360405163391434e360e21b8152600401610752939291906118cd565b6001600160a01b0384165f9081526020819052604090209082900390555b6001600160a01b03821661125257600280548290039055611270565b6001600160a01b0382165f9081526020819052604090208054820190555b816001600160a01b0316836001600160a01b03167fddf252ad1be2c89b69c2b068fc378daa952ba7f163c4a11628f55a4df523b3ef836040516112b591815260200190565b60405180910390a3505050565b5f6105f46005546001600160a01b031690565b6113017f000000000000000000000000000000000000000000000000000000000000000085308561155a565b61130b8382611593565b826001600160a01b0316846001600160a01b03167fdcbc1c05240f31ff3ad067ef1ee35ce4997762752e3a095284754544f4c709d784846040516111a1929190918252602082015260400190565b6040516001600160a01b03838116602483015260448201839052610db291859182169063a9059cbb906064015b604051602081830303815290604052915060e01b6020820180516001600160e01b0383818316178352505050506115cb565b826001600160a01b0316856001600160a01b0316146113dc576113dc838683610e6e565b6113e68382611637565b6114117f00000000000000000000000000000000000000000000000000000000000000008584611359565b826001600160a01b0316846001600160a01b0316866001600160a01b03167ffbde797d201c681b91056529119e0b02407c7bb96a4a2c75c01fc9667232c8db8585604051611469929190918252602082015260400190565b60405180910390a45050505050565b5f600282600381111561148d5761148d611a4b565b6114979190611a5f565b60ff166001149050919050565b5f838302815f1985870982811083820303915050805f036114d8578382816114ce576114ce611a11565b04925050506106d7565b8084116114ef576114ef600385150260111861166b565b5f848688095f868103871696879004966002600389028118808a02820302808a02820302808a02820302808a02820302808a02820302808a02909103029181900381900460010186841190950394909402919094039290920491909117919091029150509392505050565b6040516001600160a01b038481166024830152838116604483015260648201839052610ed19186918216906323b872dd90608401611386565b6001600160a01b0382166115bc5760405163ec442f0560e01b81525f6004820152602401610752565b6115c75f83836111af565b5050565b5f8060205f8451602086015f885af1806115ea576040513d5f823e3d81fd5b50505f513d9150811561160157806001141561160e565b6001600160a01b0384163b155b15610ed157604051635274afe760e01b81526001600160a01b0385166004820152602401610752565b6001600160a01b03821661166057604051634b637e8f60e11b81525f6004820152602401610752565b6115c7825f836111af565b634e487b715f52806020526024601cfd5b602081525f82518060208401528060208501604085015e5f604082850101526040601f19601f83011684010191505092915050565b5f602082840312156116c1575f80fd5b5035919050565b80356001600160a01b03811681146116de575f80fd5b919050565b5f80604083850312156116f4575f80fd5b6116fd836116c8565b946020939093013593505050565b5f806040838503121561171c575f80fd5b8235915061172c602084016116c8565b90509250929050565b5f805f60608486031215611747575f80fd5b611750846116c8565b925061175e602085016116c8565b929592945050506040919091013590565b5f6020828403121561177f575f80fd5b6106d7826116c8565b8015158114610d6a575f80fd5b5f80604083850312156117a6575f80fd5b6117af836116c8565b915060208301356117bf81611788565b809150509250929050565b5f805f606084860312156117dc575f80fd5b833592506117ec602085016116c8565b91506117fa604085016116c8565b90509250925092565b5f8060408385031215611814575f80fd5b61181d836116c8565b915061172c602084016116c8565b5f6020828403121561183b575f80fd5b5051919050565b600181811c9082168061185657607f821691505b60208210810361187457634e487b7160e01b5f52602260045260245ffd5b50919050565b634e487b7160e01b5f52601160045260245ffd5b808201808211156106945761069461187a565b60ff81811683821601908111156106945761069461187a565b818103818111156106945761069461187a565b6001600160a01b039390931683526020830191909152604082015260600190565b5f602082840312156118fe575f80fd5b81516106d781611788565b6001815b6001841115611944578085048111156119285761192861187a565b600184161561193657908102905b60019390931c92800261190d565b935093915050565b5f8261195a57506001610694565b8161196657505f610694565b816001811461197c5760028114611986576119a2565b6001915050610694565b60ff8411156119975761199761187a565b50506001821b610694565b5060208310610133831016604e8410600b84101617156119c5575081810a610694565b6119d15f198484611909565b805f19048211156119e4576119e461187a565b029392505050565b5f6106d760ff84168361194c565b80820281158282048414176106945761069461187a565b634e487b7160e01b5f52601260045260245ffd5b5f82611a3357611a33611a11565b500490565b5f82611a4657611a46611a11565b500690565b634e487b7160e01b5f52602160045260245ffd5b5f60ff831680611a7157611a71611a11565b8060ff8416069150509291505056fea26469706673582212206163dc4be03625fb2e0c93b5876c7dafee249133d657028fc1dc23679efb3d0564736f6c634300081a0033",
    "linkReferences": {}
  },
  "methodIdentifiers": {
    "allowance(address,address)": "dd62ed3e",
    "approve(address,uint256)": "095ea7b3",
    "asset()": "38d52e0f",
    "balanceOf(address)": "70a08231",
    "claimableDepositRequest(address)": "aff947c4",
    "convertToAssets(uint256)": "07a2d13a",
    "convertToShares(uint256)": "c6e6f592",
    "decimals()": "313ce567",
    "deposit(uint256,address)": "6e553f65",
    "entryFeeBasisPoints()": "ba0af7a9",
    "isOperator(address,address)": "b6363cf2",
    "maxDeposit(address)": "402d267d",
    "maxEntryFeeBasisPoints()": "7536018b",
    "maxMint(address)": "c63d75b6",
    "maxRedeem(address)": "d905777e",
    "maxWithdraw(address)": "ce96cb77",
    "mint(uint256,address)": "94bf804d",
    "name()": "06fdde03",
    "owner()": "8da5cb5b",
    "pendingDepositRequest(address)": "c3702989",
    "previewDeposit(uint256)": "ef8b30f7",
    "previewMint(uint256)": "b3d7f6b9",
    "previewRedeem(uint256)": "4cdad506",
    "previewWithdraw(uint256)": "0a28a477",
    "redeem(uint256,address,address)": "ba087652",
    "renounceOwnership()": "715018a6",
    "requestDeposit(uint256,address,address)": "85b77f45",
    "requestRedeem(uint256,address)": "107703ab",
    "setOperator(address,bool)": "558a7297",
    "symbol()": "95d89b41",
    "totalAssets()": "01e1d114",
    "totalSupply()": "18160ddd",
    "transfer(address,uint256)": "a9059cbb",
    "transferFrom(address,address,uint256)": "23b872dd",
    "transferOwnership(address)": "f2fde38b",
    "updateEntryFeeBasisPoints(uint256)": "d57636c9",
    "withdraw(uint256,address,address)": "b460af94"
  },
  "id": 35
}